:020000040800F2
:10000000F8040020010100088F1C0008B51A000840
:100010008D1C0008270A000881220008000000004B
:10002000000000000000000000000000DF1D0008CC
:10003000D10A000800000000DD1D0008E11D0008D5
:100040001B0100081B0100081B0100081B01000820
:100050001B0100081B0100081B0100081B01000810
:100060001B0100081B0100081B0100081B01000800
:100070001B0100081B0100081B0100081B010008F0
:100080001B0100081B0100081B0100081B010008E0
:100090001B0100081B0100081B0100081B010008D0
:1000A0001B0100081B0100081B0100081B010008C0
:1000B0001B0100081B0100081B0100081B010008B0
:1000C0001B0100081B0100081B0100081B010008A0
:1000D0001B010008792200081B0100081B01000811
:1000E0001B0100081B0100081B010008DFF80CD0F1
:1000F00000F026FC0048004779230008F80400209F
:100100000648804706480047FEE7FEE7FEE7FEE7B1
:10011000FEE7FEE7FEE7FEE7FEE7FEE7311E00082A
:10012000ED000008202A04DB203A21FA02F0002129
:10013000704721FA02F3D040C2F1200291400843F7
:1001400019467047D2B201E000F8012B491EFBD2DC
:1001500070470022F6E710B513460A4604461946D2
:10016000FFF7F0FF204610BD70B5064602F024F9F7
:10017000046805460A220021304600F075FA2C601A
:1001800070BDF0B480EA0102D40F4200B2EB410F1F
:1001900002D20246084611464A0042D0C30DDDB2E3
:1001A000C1F3C752AD1A202D35DAC1F3160141F45F
:1001B000000204B15242C5F1200602FA06F12A41BA
:1001C0001044B3EBD05F23D0C4B1012DA0EBC350DA
:1001D00009DCF0BC4FF0004202EAC352DBB200F58A
:1001E000000000F082BA400000F1807000EBC350C4
:1001F000A0F1807040EAD170490009E0490841EA65
:10020000C071A0EBC35000F50000400800EBC350E4
:10021000F0BC00F061BA6142012202EB4101001B17
:10022000F6E7F0BC704781F00041AAE780F000409B
:10023000A7E780EA010210B502F00043400022D097
:100240004A001FD0010E01EB1261C0F35600C2F349
:10025000560240F4000042F40002A0FB0220000419
:100260007F39140400D0401C50EA124001D44000F1
:10027000491EC2B20C0604EBD010401C4008802A74
:1002800002D003E0002010BD20F00100002900DAB8
:100290000020184310BD2DE9FE4F804681EA03007F
:1002A000C00F0C46009021F0004123F00045B8EB50
:1002B0000200A94105D24046214690461C460B4605
:1002C000024623F00040104347D0270DC7F30A0031
:1002D000C3F30A510290401A019040286BDAC3F32D
:1002E000130040F4801B0098924620B10023D2EB0B
:1002F000030A63EB0B0B01985946C0F140025046CC
:1003000000F091F906460D4650465946019A00F014
:1003100099F910EB08006141002487EA115284EA40
:10032000E7731A4340D0009A62B3019A012A4FEA58
:10033000075215DC001B61EB02014FF0004202EA9C
:100340000752CDE90042001C41F5801132462B4690
:1003500000F008FA03B0BDE8F08F40462146F9E707
:10036000001B61EB0201001C41F5801300185B418A
:100370002018A2F5001747EB030140EAD570B61923
:100380006D4111E06D084FEA360645EAC0754FEA47
:100390000752001B61EB0201001C41F58011490866
:1003A0004FEA30000019514132462B4603B0BDE8F8
:1003B000F04F00F0C8B90098012240000023D0EBB4
:1003C000020263EBE073009821464FEAE074B8EB59
:1003D000000061EB0401E9E783F000435BE781F093
:1003E000004158E72DE9FE4F81EA030404F0004480
:1003F00021F0004100944FF0000B23F0004350EA3D
:1004000001045ED052EA03045BD0C3F30A54C1F383
:100410000A552C44A4F2F3340194A0FB0254C1F316
:10042000130141F48011C3F3130343F4801301FB60
:10043000024400FB034E840A970A44EA815447EAC7
:100440008357A4FB076802958D0A05FB07854FEAD1
:10045000932C04FB0C542705029D4FEA065847EAEB
:100460001637B5EB08056EEB070C870E920E47EAC0
:10047000811742EA8312A7FB0201B6EB0B0164EB82
:1004800000042B0D43EA0C335E1844EB1C50DA4693
:100490005146E7FB0201C5F313044FEA0B3343EA6D
:1004A00014534FEA0432019C43EA0603A4F10C04FE
:1004B0000294009CCDE900B400F054F903B0BDE80B
:1004C000F08F00200146F9E7002801DBC0F1004071
:1004D000002901DBC1F10041814201D301207047B5
:1004E00000207047002801DBC0F10040002901DB3B
:1004F000C1F10041814201D90120704700207047BD
:10050000C10F80EAE0700844CA079623002100F07A
:10051000ECB820F00040C10DC0F3160040F400001C
:100520007F2901DA00207047962903DCC1F196018A
:10053000C840704796398840704700F0004230F05C
:1005400000400AD0C10D01F56071C0F3160042EA07
:100550000151C2084007114370470020014670470F
:1005600001F0004330B421F0004150EA010206D00E
:100570000A0DA2F56072C1F31301002A02DC30BC3F
:1005800000207047440F44EAC104C100E01830BCA9
:1005900000EBC25000F0A0B830B50B460146002079
:1005A0002022012409E021FA02F59D4205D303FA35
:1005B00002F5491B04FA02F52844151EA2F10102B6
:1005C000F1DC30BD2DE9F05F0546002092469B46E8
:1005D00088460646814640241BE028464146474659
:1005E0002246FFF79FFD53465A46C01A914110D349
:1005F00011461846224600F016F82D1A67EB01083E
:100600004F4622460120002100F00DF817EB0009AB
:100610004E41201EA4F10104DFDC484631462A4643
:100620004346BDE8F09F202A04DB203A00FA02F19D
:10063000002070479140C2F1200320FA03F31943D0
:1006400090407047202A06DBCB17203A41FA02F08F
:1006500043EAE07306E041FA02F3D040C2F120021F
:1006600091400843194670472DE9F04791460F46DF
:1006700080460446002614F8015B2DB100F072F9A3
:100680000068405DC007F6D12B2D02D02D2D18D06B
:10069000641E4A463946204600F068F927B1396899
:1006A000A14201D1C7F8008071054FF002040BD5BB
:1006B0004042002803DD01F07FFE0460A007BDE892
:1006C000F08746F48066E4E70028F8DA01F074FE6B
:1006D00004606FF00040F2E70029A8BF7047401C9B
:1006E000490008BF20F00100704710B4B0FA80FC48
:1006F00000FA0CF050EA010404BF10BC704749B185
:10070000CCF1200421FA04F411FA0CF118BF0121F4
:1007100021430843A3EB0C01CB1D4FEA00614FEAD4
:10072000102042BF002010BC704700EBC3501044A3
:100730000029A4BF10BC7047401C490008BF20F02E
:10074000010010BC704710B5141E73F1000408DAE4
:10075000401C41F1000192185B411A4301D120F085
:10076000010010BD2DE9F04D92469B4611B1B1FA42
:1007700081F202E0B0FA80F220329046FFF753FF98
:1007800004460F4640EA0A0041EA0B0153465A4626
:10079000084313D0114653EA010019D0C8F14002B2
:1007A0005046FFF7BFFC05460E46504659464246A6
:1007B000FFF739FF084305D0012004E02046394601
:1007C000BDE8F08D0020054346EAE0762C43374330
:1007D0000A986305E40AA0EB08000022FD0A44EA37
:1007E00047540A3002D500200146E9E701051019F7
:1007F0006941DDE9084500196941BDE8F04DA2E70E
:100800002DE9F04D81EA030404F0004B21F000458E
:1008100014464FF0000A23F0004150EA050220D0B0
:1008200054EA01021DD0C5F30A570246C5F313036B
:10083000C1F31300C1F30A5640F4801543F480134A
:10084000A7EB0608101BD64608F2FD3873EB05002F
:1008500002D308F1010801E092185B41B8F1000FE2
:1008600003DA00200146BDE8F08D00204FF480112E
:10087000064684460EE0171B73EB050705D3121BD3
:1008800063EB050306434CEA010C49084FEA3000CC
:1008900092185B4150EA0107EDD152EA030012D0F1
:1008A00082EA040083EA0501084305D0101BAB412E
:1008B00006D20122002306E000224FF0004302E0AE
:1008C0006FF0010253101AEB06004CEB085110EBCD
:1008D0000A0041EB0B01BDE8F04DFFF734BFC1F357
:1008E0000A52C1F3130140F2FF3341F480119A42DE
:1008F00002DA00200146704740F233439A42A2F2E6
:10090000334202DC5242FFF70DBCFFF78CBE000001
:1009100030B5041E71F1000404DB4FF00044404286
:1009200064EB0101141E73F1000405DB1C464FF05B
:100930000043524263EB0403994208BF904230BD2A
:10094000064C074D06E0E06840F0010394E807001C
:1009500098471034AC42F6D3FFF7CCFB582D000873
:10096000782D0008004870473C2D00082DE9F05F05
:1009700082460078002715468B460AF10104B946E5
:10098000302801D09DB113E014F8010B012778281D
:1009900003D0582801D045B10AE00DB1102D07D180
:1009A0000027102514F8010B02E0082500E00A25B5
:1009B0000026B0460EE005FB080005FB06F1012706
:1009C00001EB10461FFA80F8B6F5803F00D3B94618
:1009D00014F8010B294600F018F80028EBDABBF1F7
:1009E000000F05D00FB1641E00E05446CBF8004064
:1009F000B9F1000F06D001F0DFFC02210160C81E32
:100A0000BDE8F09F48EA0640FAE73A2800D23038BD
:100A100020F02002412A01D3A2F13700884201D3FD
:100A20004FF0FF307047FEE7B0B5214D0446294630
:100A3000FFF758FD38B91F492046FFF745FD254609
:100A4000002808BF1B4D2846FFF777FD1A4A1B4BAD
:100A5000FFF7C8FC1A4B0022FFF71DFCFFF780FDD3
:100A6000FFF757FD174909684863B0BDB0B5104D91
:100A700004462946FFF736FD38B90E492046FFF7F0
:100A800023FD2546002808BF0A4D2846FFF755FDDF
:100A9000094A0A4BFFF7A6FC094B0022FFF7FBFBB4
:100AA000FFF75EFDFFF735FD064909688863B0BDB5
:100AB00000409C4500409CC59A9999999999C93FD5
:100AC00000709740300000201048002101707047EE
:100AD0007047704710B50348048800F00FF8201ADB
:100AE00010BD00BF1400002010B50348048800F0BA
:100AF00009F8201A10BD00BF160000200348B0F905
:100B0000020070470148B0F9040070471800002047
:100B100090F8211002291BD102681F4B11689A42DC
:100B200021F00E011160116821F0010111601949D5
:100B300012D01A4B9A4211D0194B9A4210D0194B2D
:100B40009A4210D0184B9A4210D14FF4803315E0DE
:100B5000042181630120704701230FE010230DE081
:100B60004FF480730AE04FF4805307E001F1680C02
:100B70004FF08073624508BF4FF480130B604FF451
:100B800080710184416B19B180B58847002080BD18
:100B90000020704704000240080002401C00024090
:100BA0003000024044000240580002402DE9FC4F52
:100BB000594A04234FF0000B4FF001084FF00F0E7D
:100BC0004FF000090025904208BF03230093102D29
:100BD00008BFBDE8FC8F0A6808FA05F73A4200F042
:100BE00096804A68032A16D9112A24D0122A26D0C0
:100BF0004C4B9A4213D04C4B9A4210D04B4B9A42DA
:100C00000DD04B4B9A420AD04A4B9A4207D04A4BDE
:100C10009A4204D020E0DFE802F00216191D8A682B
:100C200032B1012A14BF476107614FF0080913E090
:100C30004FF0040910E0CA6802F104090CE0CA6828
:100C400002F10C0908E0D1F80C9005E0CA6802F145
:100C5000080901E04FF000095A460446082D28BF54
:100C6000203A28BF043426680EFA02F309FA02F289
:100C700026EA03031A432260CA79D20647D5614A9D
:100C80000BF00C0C1346126842F001021A601A684D
:100C90000EFA0CF302F001020192204A019CAC080A
:100CA000A2F57E7656F8242022EA030A234A9042CF
:100CB00008D0234A904207D0224A009B904208BFA6
:100CC000022302E0002300E0012303FA0CF242EACF
:100CD0000A0246F82420114E4A68D303336854BFF1
:100CE000BB433B4333609303736854BFBB433B43F5
:100CF0007360D302B36854BFBB433B439202B360FB
:100D0000074A1346126854BFBA433A431A600BF1BC
:100D1000040B01355BE700BF0014014000040140F3
:100D20000C040140000011100000121000002110FE
:100D300000002210000031100000321000080140B5
:100D4000000C014000100140002A08BF09040161A5
:100D50007047000005480068704700BF1A48034903
:100D600000780A6810440860704700BFF000002057
:100D700080B59748016841F010010160032000F040
:100D80006FF8002000F004F800F020F8002080BD8B
:100D900070B50D4E04464FF47A713078B1FBF0F027
:100DA00097490968B1FBF0F000F0D8FA01250F2C43
:100DB00008D838B94FF0FF3021460022002500F056
:100DC00031F87460284670BD0800002082B00D48DC
:100DD0000222016841F001010160016801F0010196
:100DE00001910199416841F080514160406800F0F3
:100DF0008050009000980448016862F31A61016015
:100E000002B07047181002400400014000F01F01BA
:100E10000122400902FA01F1014A42F8201070470C
:100E200000E100E080B5144B1B68C3F3022CBCF159
:100E3000030E8CF007034FF0FF3C38BF4FF0000E5D
:100E4000042B28BF04230CFA03F399430CFA0EF386
:100E500001FA0EF19A431143BDE8804000F018BF3B
:100E600005494FF6FF030A681A4060F30A22034857
:100E700010430860704700BF0CED00E00000FA0569
:100E80002DE9F8430D4652490446086800F0070072
:100E9000A84209D2086820F00700284308600868C3
:100EA00000F00700A84253D12068654F89468107AA
:100EB00011D5410742BF396841F4E061396001074B
:100EC00042BF396841F4605139603968A26821F045
:100ED000F00111433960C00733D1D9F8000000F0A8
:100EE0000700A8420CD9D9F8000020F007002843D9
:100EF000C9F80000D9F8000000F00700A84227D187
:100F00002068410705D53968E26821F4E0611143A2
:100F10003960000706D53868216920F4605040EA3E
:100F2000C100386000F070F839682A4A0024C1F323
:100F30000311515CC840324908600020FFF728FFC8
:100F400007E06068012808D157F8041C89030DD414
:100F50000124204601B0BDE8F08357F8041C0228A4
:100F600002D18901F4D501E08907F1D5396821F072
:100F7000030108433860FFF7EDFE0646606841F262
:100F8000883801280CD0022815D1386800F00C00F0
:100F90000828A2D0FFF7DEFE801B4045F5D914E0FB
:100FA000386800F00C00042897D0FFF7D3FE801BB0
:100FB0004045F5D909E0386810F00C0F3FF48DAFCB
:100FC000FFF7C8FE801B4045F5D90324C1E700BFE9
:100FD00000200240402D0008DE481949094A0068F7
:100FE0000968C1F30221515CC8407047D9481449CF
:100FF000044A00680968C1F3C221515CC8407047C7
:1010000010000020502D000810B50D4C0D4822682E
:1010100002F00C03082B18BF10BDC2F383430AA1D2
:10102000CB5CD10302D40D48584310BD21680AA2FD
:101030005843C1F34041515CB0FBF1F010BD00BF1B
:101040000410024000127A00020304050607080992
:101050000A0B0C0D0E0F10100102000000093D00DC
:101060002DE9FC4104460078B84EC00749D07068AD
:1010700000F00C00042817D0706800F00C0008285D
:1010800002D17068C0030FD4606898B1B0F5803F9A
:1010900006D03168B0F5A02F20D141F48020306017
:1010A000306840F480301FE03068800329D56068E4
:1010B00038BB07E1306820F480303060306820F4BD
:1010C00080203060FFF746FE05463068800318D563
:1010D000FFF740FE401B6428F7D9E2E021F480309E
:1010E0003060306820F480203060FFF733FE054622
:1010F0003068800305D4FFF72DFE401B6428F7D924
:10110000CFE0207880072BD5706810F00C0F07D047
:10111000706800F00C00082809D17068C00306D47C
:101120003068800715D52069012812D0CAE02169EE
:10113000874800297CD001210160FFF70BFE05469E
:101140003068800705D4FFF705FE401B0228F7D959
:10115000A7E03068616920F0F80040EAC100306023
:10116000207800072ED5A06978B179480121C0F810
:101170008014FFF7EFFD0546706A800715D4FFF76E
:10118000E9FD401B0228F7D98BE071480021C0F827
:101190008014FFF7DFFD0546706A800712D5FFF760
:1011A000D9FD401B0228F7D97BE06A484FF4FA5179
:1011B0000068B0FBF1F0019000BF0198411E0028CB
:1011C0000191F9D12078400774D5F069C0000BD4A3
:1011D000F0694FF0010840F08050F061F06900F0D4
:1011E00080500090009801E04FF000085A4F386896
:1011F000C0050FD4386840F480703860FFF7AAFD4E
:1012000005463868C00505D4FFF7A4FD401B6428D7
:10121000F7D946E0E068D0B1012805D0316A052849
:101220002BD141F004003062306A40F001002AE026
:1012300000210160FFF78EFD0546306880077FF5CD
:101240008FAFFFF787FD401B0228F6D929E0306AEF
:1012500020F001003062306A20F004003062FFF7B5
:1012600079FD054641F28837306A80071BD5FFF7C4
:1012700071FD401BB842F7D913E021F00100306244
:10128000306A20F004003062FFF764FD054641F249
:101290008837306A800706D4FFF75CFD401BB842F0
:1012A000F7D903204FE0B8F1000F1EBFF06920F01E
:1012B0008050F061E769002F44D0706800F00C00A6
:1012C000082801D101203EE0214900208846086617
:1012D000FFF740FD0546022F0AD1474630688001DE
:1012E00010D5FFF737FD411B03200229F6D92AE06C
:1012F0003068800126D5FFF72DFD411B032003290F
:10130000F6D320E0206AB0F5803F05D17168A2686D
:1013100021F40031114371607168626A104321F455
:1013200074110843706001203866FFF713FD04460E
:101330003068800106D4FFF70DFD011B0320022950
:10134000F6D900E0002002B0BDE8F08100100240B4
:10135000000042421000002000700040411E0020AA
:10136000B0EB116F1CBF01207047044AF02351609D
:1013700003490B70072190601160704710E000E096
:1013800023ED00E090F83C20012A01D102211FE06A
:10139000B0B501F10805D1E900CE3CCD896923F44F
:1013A0007C5322F470521A432EF478431A432CF4DF
:1013B00070431A4324F460431A432A4322F4404200
:1013C000114302685164002180F83C10BDE8B04030
:1013D0000846704790F83C300222012B1AD080F862
:1013E0003D200268536823F070035360D1F800C0B9
:1013F000536843EA0C035360936823F080039360BF
:1014000049689368194391600022012180F83C20CB
:1014100080F83D1010467047B0B110B5044690F802
:101420003D0028B9002084F83C00204600F00EF86A
:101430000220211D84F83D00206800F01FFD0120DE
:1014400084F83D00002010BD012070470068A749C6
:10145000884218BF704781B06448016841F4006158
:101460000160006800F400600090009801B07047CF
:10147000022180F83D1001680A6842F001020A600A
:10148000012180F83D100020704710B590F83C20F5
:1014900004460220012A08BF10BD84F83D00012047
:1014A0004FF6777384F83C00206882689A43826024
:1014B0000A68BAB1102A1BD0202A1FD0302A23D0A4
:1014C000402A27D0502A31D0602A3BD0702A45D0FC
:1014D000B2F5005F51D0B2F5805F5DD1816821F037
:1014E000070158E0816841F0070121F0700152E0E6
:1014F000816841F0170121F060014CE0816841F002
:10150000270121F0500146E0816841F0370121F0C8
:10151000400140E04B68CA68194600F09DFD206814
:10152000816841F0470121F0300134E04B68CA681E
:10153000194600F091FD2068816841F0570121F0C3
:10154000200128E04B68CA68194600F096FD206823
:10155000816841F0670121F010011CE0D1E901230D
:10156000C9681A4342EA0121826822F47F4211438A
:101570008160816841F077010DE0D1E90123C968FC
:101580001A4342EA0121826822F47F4211438160BA
:10159000816841F4804181600020012184F83C0091
:1015A00084F83D1010BD0000FEB501460020CDE9D5
:1015B0000400CDE90200F948096800F51052914293
:1015C00012D1F5490A6842F004020A60096801F084
:1015D0000401019101990221059103914FF4407199
:1015E000029102A9FFF7E2FA06B080BD181002408E
:1015F00070B50D4690F83C1004460220012908BF42
:1016000070BD84F83D004FEAB2000126032884F83B
:101610003C6036D8DFE800F0020A12222068294632
:1016200000F066FC206850F8181F0EE0206829467C
:1016300000F08CFC206850F8181F16E0206829463E
:1016400000F0B4FC206850F81C1F41F00801016054
:10165000016821F00401016029690FE02068294632
:1016600000F0D4FC206850F81C1F41F400610160B8
:10167000016821F48061016029690902026811434F
:101680000160002084F83C0084F83D6070BDB0B17A
:1016900010B5044690F83D0028B9002084F83C00BD
:1016A000204600F00EF80220211D84F83D0020683D
:1016B00000F0E4FB012084F83D00002010BD012073
:1016C0007047704710B504460068012200F002FC24
:1016D00020680649884203D14A6C42F400424A64B9
:1016E000016841F001010160002010BD002C0140A3
:1016F0007047000010B5D0F800E00446DEF8001096
:10170000DEF80C20DEF814305FEA017C50D002F4E1
:10171000907003F00103C01852D0C8071FBF12F425
:101720008070E06B40F00100E063480704D51BB116
:10173000E06B40F00200E063880704D51BB1E06B6A
:1017400040F00400E063BCF1000F04D51BB1E06B76
:1017500040F00800E063E06B00286ED002EA010070
:10176000800604D5204600F0ACFCD4F800E0DEF89A
:101770001400E16B00F0400001F0080140184CD06B
:10178000204600F091FC20684169490640D5416936
:1017900021F040014161606BD0B32F494163FFF7F5
:1017A000B7F9002849D0606B416BBDE8104008478D
:1017B00011408A0605D52046BDE8104000F081BCE6
:1017C000114008060FD4480637D5DEF80C0020F08B
:1017D0004000CEF80C00202084F839002046BDE8F7
:1017E000104000F066B994F83900212825D1A0688E
:1017F000216AB0F5805F16D108886FF35F20CEF8BC
:1018000004002069002814BF481C881C20620FE0D7
:101810002046BDE81040FFF76BBF2046FFF768FF8A
:101820000020E06310BD481C20620878CEF8040058
:10183000E08C0138E084000400D010BDDEF80C001C
:1018400020F08000CEF80C00DEF80C0040F04000E4
:10185000CEF80C0010BD00BF9D20000850B310B59D
:10186000044690F8390028B9002084F83800204652
:1018700000F022F8242084F839002068C16821F49F
:101880000051C160204600F059FC2068016921F434
:1018900090410161416921F02A014161C16841F42F
:1018A0000051C16000202021E06384F8391084F8E1
:1018B0003A1010BD0120704770B586B00026F2497D
:1018C000CDE90466CDE90266006888423AD0E04975
:1018D00088425ED1994802AD016841F480410160BF
:1018E000016801F4804101910199016841F008010A
:1018F00001602946006800F008000190019803206B
:1019000005900220039040200290244800F5806456
:101910002046FFF74BF900202946CDE9030080203F
:1019200002902046FFF742F91D481E4A0168114304
:101930000022016025200121FFF774FA2520FFF71E
:1019400065FA26E07D48154C02AD416841F400314E
:101950004160416801F4003101910199016841F051
:10196000040101602946006800F00400019001981C
:101970000320059002200390042002902046FFF7E8
:1019800015F90820CDE90366294602902046FFF7A5
:101990000DF906B070BD00BF1810024000080140EC
:1019A0000400014004000007034690F83A00202894
:1019B00006D10120E9B1E2B193F83800012801D144
:1019C000022070470020DA85D8639A859962222127
:1019D00083F8380083F83A101968CA6842F48072B4
:1019E000CA604A6942F001024A61CA6842F02002B4
:1019F000CA60704700689649884208BF00F062BC20
:101A0000704700BF2DE9F041044690F839002028C6
:101A10000AD10E460120002949D01746002A46D097
:101A200094F83800012802D10220BDE8F08100209E
:101A30001D46E063012084F83800212084F8390035
:101A4000FFF788F98046E784A7841DE0E08C8021B9
:101A500042462B460138E0842046A76800F0E0FBB0
:101A6000B7F5805F0BD1C8B9318820686FF35F216B
:101A700041602069002814BF0136023604E068B9CD
:101A8000206816F8011B4160E08C0028DED120465A
:101A9000402142462B4600F0C3FB10B10320BDE8B5
:101AA000F0810020202184F8380084F83910BDE846
:101AB000F0817047FEE7000001480078704700BFE2
:101AC000180000207FB51D481D4C01224FF4005521
:101AD0000126016841F010010160016801F0100168
:101AE00000910099016841F020010160016801F056
:101AF000200100910099016841F004010160016832
:101B000001F0040100910099016841F008010160B1
:101B10004FF40051006800F0080000900098204643
:101B2000FFF712F902206946039000200290204638
:101B3000CDE90056FFF73AF87FBD00BF181002400C
:101B400000100140B0B594B007AC00251C21204620
:101B5000CDE91255CDE91055CDE90E55FEF7F9FA4C
:101B600068461C21FEF7F5FA2B48F74B472244F64E
:101B70002061C0E90032C0E90251C0E90455856125
:101B8000FFF74AFC08B1FEF7A4FF4FF4805010A9FC
:101B900010902148FFF779FC08B1FEF79AFF1E4824
:101BA000FFF775FD08B1FEF794FF00200EA9CDE9FF
:101BB0000E001948FFF70EFC08B1FEF78AFF6020FF
:101BC00018210790201DFEF7C4FA13482146002271
:101BD000FFF70EFD08B1FEF77CFF0F4807A90422AE
:101BE000FFF706FD08B1FEF774FF6C46142120468E
:101BF000FEF7AFFA0020214606904FF40050059002
:101C00000548FFF7BFFB08B1FEF763FF0248FFF787
:101C1000CBFC14B0B0BD00BF3000002010B50B48A5
:101C20000B4C4FF4E13300210C22C0E90043C0E922
:101C30000211C0E90412C0E90611FFF70FFE0028E7
:101C400014BFBDE8104010BDFEF743BF7000002078
:101C50000038014010B50B480B4C4FF4E133002124
:101C60000C22C0E90043C0E90211C0E90412C0E936
:101C70000611FFF7F3FD002814BFBDE8104010BDAA
:101C8000FEF727BFB000002000440040FEE7704789
:101C900010B5064A00F00F030028054C02444FEA35
:101CA0000110B8BF1A19107010BD00BF00E400E0A9
:101CB00014ED00E00648BFF34F8F064A016801F4B7
:101CC000E06111430160BFF34F8F00BFFDE700BF2C
:101CD0000CED00E00400FA052DE9FE4FFEF7FAFED8
:101CE000FEF70EFC334E0546D6F800803060FEF756
:101CF000FBFEFEF705FC716804467060FEF793FA80
:101D00002D4906462046FEF794FA2C490746204600
:101D1000FEF78FFA01463846FEF733FA28490446A3
:101D200030468B46FEF785FA01462046FEF729FA33
:101D30008146FEF702FC07468A4628464146FEF7E2
:101D400072FA1D4904462846FEF773FA1B490646F7
:101D50002846FEF76EFA01463046FEF712FA0546AF
:101D600020465946FEF765FA01462846FEF709FA6D
:101D70000546FEF7E2FB024612A00B46CDE9007ACB
:101D800000F00AFBFEF7BAFE0446FEF7BBFE024671
:101D90000FA0214600F000FB85F00044FEF7AEFEE8
:101DA0002046FEF763FEFEF7ADFE4846BDE8FE4F57
:101DB000FEF73ABE280000200000A042CDCC4C3EE9
:101DC00000007A44583D25662C593D25660A0000DE
:101DD000783D25642C793D25640A000070477047E2
:101DE000FEF7BCBFB0B590B000244FF4E010022560
:101DF0000121CDE90B44CDE909440F904FF4803027
:101E00000E900D950A910894CDE9061006A8FFF7EB
:101E100027F94FF480600594022104900F20CDE94A
:101E20000254019001A8FFF72BF810B0B0BD0000DC
:101E30000E480F4A016841F00101016041681140FC
:101E40000C4A4160016811400160016821F4802161
:101E50000160416821F4FE0141604FF41F0181607F
:101E600005484FF000610160704700BF001002405C
:101E70000000FFF8FFFFF6FE08ED00E0B0B50368D4
:101E8000744DB0F1804F07D0104CA04204D0A8424E
:101E900002D00F4CA04207D14C6823F45C73CA688F
:101EA00024F44074234313434A6923F08003A84277
:101EB00042EA030202608A68C2620A68826204BF60
:101EC0000969296301214161B0BD00BF00040040E0
:101ED00000080040012303FA01FC036A02FA01F141
:101EE00023EA0C030362026A114301627047000097
:101EF00070B5026A22F001020262026AD0F804E0C0
:101F0000D0F818C08C680B6822F0020222432CF033
:101F1000730444EA030C4F4B98420CD1CE68D1E9CC
:101F200005452EF4407322F00C02234343EA050ECC
:101F300026F004031A43C0F804E0C0F818C049684A
:101F40004163026270BD00BF002C014070B5026A9F
:101F500022F010020262026AD0F804E0D0F818C041
:101F60008C680B6822F0200242EA04122CF4E6444A
:101F700044EA032C374B98420FD1CE68D1E905458E
:101F80002EF4406322F0C00243EA840343EA850E44
:101F90006FF0400303EA06131A43C0F804E0C0F8E8
:101FA00018C049688163026270BD00BF70B5026AE3
:101FB00022F480720262026AD0F804E0D0F81CC0F9
:101FC0008C680B6822F4007242EA04222CF073043D
:101FD00044EA030C1F4B98420FD1CE68D1E9054566
:101FE0002EF4405322F4406243EA041340F2FF44CB
:101FF00043EA051E3302A3431A43C0F804E0C0F8C5
:102000001CC04968C163026270BD00BFB0B5026AFE
:1020100022F480520262026AD0F804E0C5698B683B
:102020000C6822F4005242EA033C0A4B25F4E642D3
:1020300042EA0422984204D14B692EF4804545EAD5
:10204000831EC0F804E0C26149680164C0F820C082
:10205000B0BD00BF002C0140D0F820C0036A23F0BF
:1020600001030362836923F0F00343EA02128261F1
:102070002CF00A02114301627047036A23F0100337
:102080000362836923F4704343EA0232036A826184
:1020900023F0A00242EA011101627047406A002168
:1020A000C185C184FFF724BB0168CA6822F490721D
:1020B000CA604A6922F001024A61202180F83A1080
:1020C000704790F83A10222918BF70478168B1F51F
:1020D000805F08D102680369816A526883B1D2B215
:1020E00021F8012B10E0026901684968002A826A20
:1020F00002F10103836218BF01F07F01117004E057
:102100006FF35F2221F8022B8162C18D0139C185F5
:10211000090400D070470168CA6822F02002CA6032
:10212000CA6822F48072CA604A6922F001024A61D8
:10213000202180F83A10FFF75DBC00002DE9F04740
:102140000446006841F20C660169E26821F44051DE
:1021500011430161A168D4E90423C7681143B7435F
:1021600019433943C1604169A26921F440711143A7
:1021700041612849884214BFDFF89CA0DFF89CA089
:10218000D047D4F804908046D04767680646D047C9
:1021900061681925BF00684306FB05F38900B3FB9E
:1021A000F7F3B0FBF1F06421B0FBF1F202FB110296
:1021B000181A4FEA89031044322202EB001008FB80
:1021C00005F2B0FBF1F0B2FBF3F200F0F000B2FB6D
:1021D000F1F100EB0116D047616868438900B0FB5C
:1021E000F1F7D0476168684364228900B0FBF1F0E1
:1021F000B0FBF2F3391A03FB12000844322101EB61
:1022000000102168B0FBF2F000F00F00304388604E
:10221000BDE8F08700380140D90F0008ED0F000835
:102220002DE9F0411D4690460F4604465E1C20688D
:1022300001683940B94204BF0020BDE8F081002E9A
:10224000F5D035B1FEF786FDA0EB0800A842EED927
:102250002068C16821F4D071C160416921F0010199
:1022600041612020002184F8390084F8381084F876
:102270003A000320BDE8F0813648FFF73BBA00BFC3
:10228000FEE770472A480722811D3248FFF78CBBC2
:102290000B4C2046FFF7ECF820460021FFF712FA1E
:1022A00020460421FFF70EFAFFF7ECFFFFF7E9FFE6
:1022B000FFF702FC0128FBD1FEF706FCF8E700BFA0
:1022C00030000020BCB51A4D00208DF80600ADF896
:1022D00004008DF80200ADF80000287B0A2821D107
:1022E000287A2C46E97A8DF8060034F8060F8DF826
:1022F0000210ADF80400B5F80900ADF8000001A81F
:10230000FDF732FF68806846FDF72EFFA880114870
:1023100021460722FFF748FB01202870BDE8BC409A
:10232000FFF7DABC03A000F0B5FCFFF7C3FC00BF69
:10233000180000204675636B20596F7572204D6F31
:102340007468657220313030302054696D65732EA9
:102350000D000000700000201CB504468DF8070039
:1023600004480DF1070101220A23FFF74BFB204629
:1023700002B010BDB0000020FEF7FAFCFFF732FDFE
:10238000FFF7A0FBFFF7DEFBFFF748FCFFF762FC5F
:10239000FFF77EFFFCE700000FB4054B10B503A963
:1023A000044A029800F0DEF810BC5DF814FB00004F
:1023B0005923000800000020004870470400002056
:1023C00002E008C8121F08C1002AFAD170477047FE
:1023D000002001E001C1121F002AFBD1704700005C
:1023E0002DE9FF5F82B00021DDE90430020DDDF848
:1023F00040B0034318D044F61050A2F2FF324243DB
:102400001514119801281FD0A5EB0B00401C5FEAA2
:10241000000A4FF000064E4FDFF83891B0465046A4
:1024200015D5CAF1000413E0119801244AA301282C
:1024300001D16FEA0B010298119AC0E90031C0E99D
:10244000024206B0BDE8F09FCBF10000DFE7044692
:102450000021404A491842EB0450CDE9001012E037
:10246000E00707D032463B4640464946FDF7BAFFF3
:102470008046894632463B4610461946FDF7B2FF74
:1024800006460F466410002CEAD1DDE90401DDE9BF
:102490000023BAF1000F06DAFDF7A4FF42464B46CF
:1024A000FDF7A0FF05E0FEF7ABF942464B46FEF70D
:1024B000A7F904460E460022284BFEF729FA03D856
:1024C0004FF0FF30014607E00022254B2046314601
:1024D000FDF7E1FEFEF703FA102409E0002C0ADB09
:1024E0000A220023FEF76EF8039B30321A55641E51
:1024F00050EA0102F2D1641C039AC4F1110314449E
:10250000119A012A03D0012208430DD10AE00843A1
:1025100004D000204FF0110B119072E7A3EB0B05D4
:102520006D1E0DE05B4504DD4FF0000205F1010575
:1025300004E003DA4FF00002A5F10105002AECD017
:1025400002981199C0E90231C0E9004579E700001D
:10255000000014400000F03F300000000000F04395
:102560000000E03F2DE9FF4F95B09B4689460646A7
:1025700000250FE2252877D100242746F84A0121BB
:10258000059400E0044316F8013F203B01FA03F0F4
:102590001042F7D130782A2811D06FF02F0330780D
:1025A000A0F13002092A16D8059A44F0020402EB81
:1025B000820203EB42021044761C0590EFE759F8C3
:1025C000042B0592002A03DA504244F4005405908B
:1025D00044F00204761C30782E2816D116F8010F2C
:1025E00044F004042A280DD06FF02F023078A0F1B7
:1025F0003003092B09D807EB870302EB4303C71805
:10260000761CF3E759F8047B761C30786C280FD0E1
:1026100006DC4C2817D068280DD06A2814D104E0B5
:10262000742810D07A280FD10DE044F400140AE089
:1026300044F4801401E044F440147278824202D1E0
:1026400004F58014761C761C307866280BD013DCD9
:10265000582877D009DC002875D04528F6D04628C0
:10266000F4D047281AD19DE118E0632835D06428BA
:1026700079D0652812D195E1702873D008DC6728DD
:10268000F1D069286FD06E280DD06F2806D1B5E043
:1026900073282CD0752875D0782874D05A4617998D
:1026A00090476D1C75E1C4F30250022809D003283D
:1026B0000DD0D9F8001004280DD00D6009F10409DF
:1026C00067E1D9F80010EA17C1E90052F6E7D9F836
:1026D00000100D80F2E70D70F0E719F8041B8DF87B
:1026E000001000208DF80100EA46012003E059F8AF
:1026F00004AB4FF0FF3061074FF0000102D40DE052
:1027000008F101018846B9420FDA8045F8DB1AF872
:1027100008100029F4D108E008F10101884681423F
:10272000FADB1AF808100029F6D105985B46A0EBF1
:10273000080721463846179A00F094FA284400EB1F
:10274000080507E04DE029E10DE01AF8010B5A46B3
:1027500017999047B8F10108F7D25B4621463846F1
:10276000179A13E142E00A220092C4F302524FF09A
:10277000000A022A08D059F804CB032A4FEAEC7168
:102780000AD00DE029E02AE009F1070121F0070253
:10279000F2E802C1914609E00FFA8CFC4FEAEC71B5
:1027A000042A03D14FFA8CFC4FEAEC71002907DAB6
:1027B0000A460021DCF1000C61EB02012D2202E04F
:1027C000220504D52B228DF80420012203E0E20724
:1027D00001D02022F7E7904659E00A2102E01022BA
:1027E0000DE010214FF0000A00910BE010224FF095
:1027F000000A44F004040827009203E008224FF086
:10280000000A0092C4F30252022A05D059F804CB00
:102810000021032A08D009E009F1070121F007028D
:10282000F2E802C1914605E01FFA8CFC042A01D1AE
:102830000CF0FF0C4FF00008220728D5702806D0B6
:10284000009B83F0100353EA0A0305D00EE04022F8
:102850008DF80420012208E05CEA010206D0302253
:102860008DF804208DF8050002229046009B83F02D
:10287000080353EA0A030AD15CEA010201D16207A4
:1028800005D530228DF804204FF001087F1E58280E
:1028900004D034A003900EA802900DE036A0F9E712
:1028A00053466046009AFDF78DFE84460398825C8D
:1028B0000298401E029002705CEA0100F0D102987A
:1028C00006A9081A00F1200A600702D524F4803412
:1028D00000E00127574502DDA7EB0A0000E00020D9
:1028E00000EB0A01009005984144401A0590E0036E
:1028F00006D45B462146179A059800F0B3F90544C3
:10290000002706E001A85A46C05D179990476D1C44
:102910007F1C4745F6DBE0030CD55B462146179A42
:10292000059800F09FF9054404E030205A461799B5
:1029300090476D1C0099481E00900029F5DC08E0C6
:10294000029802995A460078491C029117999047BB
:102950006D1CBAF10001AAF1010AF1DC65E1000089
:102960000928010030313233343536373839616265
:102970006364656600000000303132333435363729
:1029800038394142434445460000000000F058F900
:102990000544761C307800287FF4ECAD19B0284649
:1029A000BDE8F08F620700D4062709F1070222F084
:1029B000070CFCE80223E14603F000485FEA080C3C
:1029C00002D00FF2702C0DE05FEA045C02D50FF22A
:1029D000682C07E05FEAC47C02D00FF2602C01E0B3
:1029E000AFF2700C4FF0FF3823F00043CDF850C029
:1029F00065280CD006DC452809D046281DD047287C
:102A00003DD13DE0662818D067287ED138E000210E
:102A1000112F01DB112000E0781CCDE9000106A98F
:102A20000EA8FFF7DDFCDDE90F010E9A03910021EE
:102A3000009207F1010A04914DE04FF00040009729
:102A4000CDE9011006A90EA8FFF7CAFCDDE90F02C7
:102A500003920E9B11990022DDF80CA000930492C2
:102A600011B9791C00EB010AB7EB0A0004D4C0F1DC
:102A7000FF3007F1010A0490AAEB0700019044E03F
:102A8000012F00DA01270021112F01DD112000E0C4
:102A90003846CDE9000106A90EA8FFF7A1FCDDE943
:102AA0000F010E9A0391002104910092BA4621076A
:102AB0000CD40399514500DA8A46BAF1010F05DDBD
:102AC000009AAAF10101515C302908D0B84202DA1B
:102AD00010F1040F06DA0121CDE9011015E0AAF189
:102AE0000101E9E7002805DC049901440491AAEBFF
:102AF000000102E0411C514500DD8A460499401A5C
:102B0000401C01904FF000400290200704D401982F
:102B1000504501DBCDF8048000208DF84F0002986D
:102B20000DF14F07B0F1004F25D02B200E900298E9
:102B30004FF0020800280CDA404202902D200E903F
:102B400007E00A210298FDF727FD3031029007F8CF
:102B5000011DB8F10001A8F10108F2DC029800287B
:102B6000EFD1791E0E980870307800F0200040F008
:102B7000450007F8020D12A8C01B00F107081498C1
:102B8000007800B1012000EB0A01019801EBE0712F
:102B900005984144401A401E0590E00306D45B4668
:102BA0002146179A059800F05DF8054414980078BE
:102BB00018B15A46179990476D1CE00324D55B461F
:102BC0002146179A059800F04DF805441CE004983A
:102BD000002807DBDDE90301884203DD0098405C43
:102BE000179901E0179930205A469047049805F14B
:102BF0000105401C04900198401E019004D12E2034
:102C00005A46179990476D1CBAF10001AAF1010AC2
:102C1000DDDC05E017F8010B5A46179990476D1C4B
:102C2000B8F10001A8F10108F4DC5B462146179ACF
:102C30000598ABE62D0000002B00000020000000EE
:102C40002DE9F041044600251E461746880404D4A9
:102C500005E039462020B0476D1C641EF9D5284692
:102C6000BDE8F0812DE9F041044600251E4690465E
:102C7000C80301D5302700E02027880404D505E0EB
:102C800041463846B0476D1C641EF9D52846BDE85C
:102C9000F081000010B5044601E0FFF75DFB14F879
:102CA000010B04490028F8D1BDE810400A20FFF7C5
:102CB00053BB000000000020004040404040404026
:102CC00040404141414141404040404040404040FF
:102CD00040404040404040404005020202020202A3
:102CE00002020202020202020220202020202020F2
:102CF0002020200202020202020290909090909006
:102D000010101010101010101010101010101010C3
:102D10001010101002020202020288888888888837
:102D20000808080808080808080808080808080823
:102D3000080808080202020240000000B92C00083E
:102D4000000000000000000001020304060708095B
:102D50000000000001020304782D0008000000209C
:102D600018000000C0230008902D00081800002063
:102D7000E0040000D0230008000000000000000074
:102D8000010000001000000000A24A0468005C007E
:04000005080000ED02
:00000001FF
