:020000040800F2
:100000009804002001010008D70E0008590D0008CF
:10001000D50E00086D01000805130008000000005F
:10002000000000000000000000000000FF0E0008BB
:100030006F01000800000000FD0E0008010F00081D
:100040001B0100081B0100081B0100081B01000820
:100050001B0100081B0100081B0100081B01000810
:100060001B0100081B0100081B0100081B01000800
:100070001B0100081B0100081B0100081B010008F0
:100080001B0100081B0100081B0100081B010008E0
:100090001B0100081B0100081B0100081B010008D0
:1000A0001B0100081B0100081B0100081B010008C0
:1000B0001B0100081B0100081B0100081B010008B0
:1000C0001B0100081B0100081B0100081B010008A0
:1000D0001B0100081B0100081B0100081B01000890
:1000E0001B0100081B0100081B010008DFF80CD0F1
:1000F00000F02AF800480047071300089804002081
:100100000648804706480047FEE7FEE7FEE7FEE7B1
:10011000FEE7FEE7FEE7FEE7FEE7FEE7510F000819
:10012000ED000008D2B201E000F8012B491EFBD21D
:1001300070470022F6E710B513460A4604461946F2
:10014000FFF7F0FF204610BD064C074D06E0E068C3
:1001500040F0010394E8070098471034AC42F6D30E
:10016000FFF7C8FF5413000874130008FEE7704738
:10017000704700002DE9FC4F594A04234FF0000B53
:100180004FF001084FF00F0E4FF00009002590428C
:1001900008BF03230093102D08BFBDE8FC8F0A6839
:1001A00008FA05F73A4200F096804A68032A16D901
:1001B000112A24D0122A26D04C4B9A4213D04C4BF1
:1001C0009A4210D04B4B9A420DD04B4B9A420AD0D8
:1001D0004A4B9A4207D04A4B9A4204D020E0DFE8CB
:1001E00002F00216191D8A6832B1012A14BF476154
:1001F00007614FF0080913E04FF0040910E0CA68E6
:1002000002F104090CE0CA6802F10C0908E0D1F817
:100210000C9005E0CA6802F1080901E04FF00009FE
:100220005A460446082D28BF203A28BF04342668C1
:100230000EFA02F309FA02F226EA03031A432260D5
:10024000CA79D20647D55E4A0BF00C0C13461268E9
:1002500042F001021A601A680EFA0CF302F0010271
:100260000192204A019CAC08A2F57E7656F8242023
:1002700022EA030A234A904208D0234A904207D038
:10028000224A009B904208BF022302E0002300E0C4
:10029000012303FA0CF242EA0A0246F82420114E26
:1002A0004A68D303336854BFBB433B433360930373
:1002B000736854BFBB433B437360D302B36854BFFE
:1002C000BB433B439202B360074A1346126854BFD4
:1002D000BA433A431A600BF1040B01355BE700BFE8
:1002E00000140140000401400C0401400000111002
:1002F0000000121000002110000022100000311038
:100300000000321000080140000C014000100140C4
:1003100005480068704700BF1A48034900780A681A
:1003200010440860704700BF9000002080B59148DD
:10033000016841F010010160032000F063F8002023
:1003400000F004F800F020F8002080BD70B50D4EDC
:1003500004464FF47A713078B1FBF0F091490968A6
:10036000B1FBF0F000F0CCFA01250F2C08D838B919
:100370004FF0FF3021460022002500F025F8746080
:10038000284670BD0000002082B00D48022201689E
:1003900041F001010160016801F001010191019941
:1003A000416841F080514160406800F08050009009
:1003B00000980448016862F31A61016002B0704756
:1003C000181002400400014080B5144B1B68C3F3B1
:1003D000022CBCF1030E8CF007034FF0FF3C38BF3A
:1003E0004FF0000E042B28BF04230CFA03F39943AB
:1003F0000CFA0EF301FA0EF19A431143BDE8804066
:1004000000F06ABD05494FF6FF030A681A4060F321
:100410000A22034810430860704700BF0CED00E05B
:100420000000FA052DE9F8430D46524904460868D4
:1004300000F00700A84209D2086820F0070028430E
:100440000860086800F00700A84253D12068654F93
:100450008946810711D5410742BF396841F4E061FF
:100460003960010742BF396841F460513960396829
:10047000A26821F0F00111433960C00733D1D9F8E7
:10048000000000F00700A8420CD9D9F8000020F0C5
:1004900007002843C9F80000D9F8000000F0070061
:1004A000A84227D12068410705D53968E26821F4C0
:1004B000E06111433960000706D53868216920F4EE
:1004C000605040EAC100386000F070F839682A4A8C
:1004D0000024C1F30311515CC84032490860002078
:1004E000FFF734FF07E06068012808D157F8041CC3
:1004F00089030DD40124204601B0BDE8F08357F8EC
:10050000041C022802D18901F4D501E08907F1D544
:10051000396821F0030108433860FFF7F9FE064609
:10052000606841F2883801280CD0022815D138685B
:1005300000F00C000828A2D0FFF7EAFE801B40451F
:10054000F5D914E0386800F00C00042897D0FFF7C4
:10055000DFFE801B4045F5D909E0386810F00C0F2C
:100560003FF48DAFFFF7D4FE801B4045F5D903243F
:10057000C1E700BF002002403A130008DE481949D5
:10058000094A00680968C1F30221515CC8407047FC
:10059000D9481449044A00680968C1F3C221515C72
:1005A000C8407047080000204A13000810B50D4CE1
:1005B0000D48226802F00C03082B18BF10BDC2F3CF
:1005C00083430AA1CB5CD10302D40D48584310BD2C
:1005D00021680AA25843C1F34041515CB0FBF1F0DD
:1005E00010BD00BF0410024000127A00020304058F
:1005F000060708090A0B0C0D0E0F1010010200006F
:1006000000093D002DE9FC4104460078B84EC007C2
:1006100049D0706800F00C00042817D0706800F012
:100620000C00082802D17068C0030FD4606898B12C
:10063000B0F5803F06D03168B0F5A02F20D141F44D
:1006400080203060306840F480301FE030688003E4
:1006500029D5606838BB07E1306820F4803030600D
:10066000306820F480203060FFF752FE0546306885
:10067000800318D5FFF74CFE401B6428F7D9E2E051
:1006800021F480303060306820F480203060FFF743
:100690003FFE05463068800305D4FFF739FE401B56
:1006A0006428F7D9CFE0207880072BD5706810F048
:1006B0000C0F07D0706800F00C00082809D1706892
:1006C000C00306D43068800715D52069012812D0F0
:1006D000CAE02169874800297CD001210160FFF729
:1006E00017FE05463068800705D4FFF711FE401B52
:1006F0000228F7D9A7E03068616920F0F80040EAE5
:10070000C1003060207800072ED5A06978B1794803
:100710000121C0F88014FFF7FBFD0546706A8007D1
:1007200015D4FFF7F5FD401B0228F7D98BE071487F
:100730000021C0F88014FFF7EBFD0546706A8007C2
:1007400012D5FFF7E5FD401B0228F7D97BE06A4888
:100750004FF4FA510068B0FBF1F0019000BF01982E
:10076000411E00280191F9D12078400774D5F06925
:10077000C0000BD4F0694FF0010840F08050F061E8
:10078000F06900F080500090009801E04FF0000800
:100790005A4F3868C0050FD4386840F4807038600C
:1007A000FFF7B6FD05463868C00505D4FFF7B0FD74
:1007B000401B6428F7D946E0E068D0B1012805D095
:1007C000316A05282BD141F004003062306A40F0D4
:1007D00001002AE000210160FFF79AFD054630681C
:1007E00080077FF58FAFFFF793FD401B0228F6D9F6
:1007F00029E0306A20F001003062306A20F0040005
:100800003062FFF785FD054641F28837306A800780
:100810001BD5FFF77DFD401BB842F7D913E021F04F
:1008200001003062306A20F004003062FFF770FD92
:10083000054641F28837306A800706D4FFF768FD25
:10084000401BB842F7D903204FE0B8F1000F1EBF9C
:10085000F06920F08050F061E769002F44D07068A3
:1008600000F00C00082801D101203EE021490020C1
:1008700088460866FFF74CFD0546022F0AD1474619
:100880003068800110D5FFF743FD411B032002298A
:10089000F6D92AE03068800126D5FFF739FD411BE3
:1008A00003200329F6D320E0206AB0F5803F05D16C
:1008B0007168A26821F40031114371607168626A45
:1008C000104321F474110843706001203866FFF76B
:1008D0001FFD04463068800106D4FFF719FD011B97
:1008E00003200229F6D900E0002002B0BDE8F08123
:1008F000001002400000424208000020007000404A
:10090000411E0020B0EB116F1CBF01207047044A4C
:10091000F023516003490B7007219060116070470C
:1009200010E000E023ED00E090F83C20012A01D126
:1009300002211FE0B0B501F10805D1E900CE3CCDA0
:10094000896923F47C5322F470521A432EF47843BD
:100950001A432CF470431A4324F460431A432A4385
:1009600022F44042114302685164002180F83C1097
:10097000BDE8B0400846704790F83C300222012B99
:100980001AD080F83D200268536823F0700353604A
:10099000D1F800C0536843EA0C035360936823F016
:1009A0008003936049689368194391600022012194
:1009B00080F83C2080F83D1010467047B0B110B56B
:1009C000044690F83D0028B9002084F83C002046F9
:1009D00000F00EF80220211D84F83D00206800F090
:1009E000DDFA012084F83D00002010BD0120704791
:1009F00000680849884218BF704781B0E74801681D
:100A000041F400610160006800F40060009000980B
:100A100001B07047002C014010B590F83C2004460E
:100A20000220012A08BF10BD84F83D0001204FF6C6
:100A3000777384F83C00206882689A4382600A6871
:100A4000BAB1102A1BD0202A1FD0302A23D0402A26
:100A500027D0502A31D0602A3BD0702A45D0B2F539
:100A6000005F51D0B2F5805F5DD1816821F0070150
:100A700058E0816841F0070121F0700152E081687F
:100A800041F0170121F060014CE0816841F027013D
:100A900021F0500146E0816841F0370121F040012A
:100AA00040E04B68CA68194600F097FB20688168EF
:100AB00041F0470121F0300134E04B68CA68194623
:100AC00000F08BFB2068816841F0570121F0200184
:100AD00028E04B68CA68194600F090FB20688168DE
:100AE00041F0670121F010011CE0D1E90123C96840
:100AF0001A4342EA0121826822F47F421143816055
:100B0000816841F077010DE0D1E90123C9681A43FA
:100B100042EA0121826822F47F42114381608168A8
:100B200041F4804181600020012184F83C0084F878
:100B30003D1010BDFEB501460020CDE90400CDE911
:100B400002008448096800F51052914212D193497D
:100B50000A6842F004020A60096801F00401019188
:100B600001990221059103914FF44071029102A96C
:100B7000FFF700FB06B080BD70B50D4690F83C1045
:100B800004460220012908BF70BD84F83D004FEAE9
:100B9000B2000126032884F83C6036D8DFE800F074
:100BA000020A12222068294600F024FA206850F830
:100BB000181F0EE02068294600F048FA206850F817
:100BC000181F16E02068294600F070FA206850F8D7
:100BD0001C1F41F008010160016821F0040101605F
:100BE00029690FE02068294600F090FA206850F843
:100BF0001C1F41F400610160016821F48061016003
:100C000029690902026811430160002084F83C0050
:100C100084F83D6070BDB0B110B5044690F83D0059
:100C200028B9002084F83C00204600F00EF802208D
:100C3000211D84F83D00206800F0B0F9012084F8FF
:100C40003D00002010BD012070477047B0B590F8FE
:100C50003C2004460220012A08BFB0BD84F83D00B4
:100C60000125204684F83C5000F076FA2068C168DF
:100C700021F04001C160C16821F48041C1600020C1
:100C800084F83C0084F83D50B0BD50B310B5044624
:100C900090F8390028B9002084F83800204600F088
:100CA00023F8242084F839002068C16821F4005119
:100CB000C160204600F0B4FA2068016921F4904137
:100CC0000161416921F02A014161C16841F400518B
:100CD000C16000202021E06384F8391084F83A10C4
:100CE00010BD01207047000070B586B00026194C79
:100CF000CDE90466CDE902660068A4F54441884266
:100D000025D1264802AD416841F400314160416877
:100D100001F4003101910199016841F00401016081
:100D20002946006800F00400019001980320059016
:100D300002200390042002902046FFF71BFA0820AF
:100D4000CDE90366294602902046FFF713FA06B064
:100D500070BD00BF00080140FEE7000083B00F48EF
:100D6000016841F010010160016801F01001029179
:100D70000299016841F020010160016801F0200141
:100D800001910199016841F004010160006800F0DF
:100D900004000090009803B0704700BF1810024094
:100DA000B0B59AB0002511A81421CDE91855CDE9A8
:100DB0001655FFF7BEF907AC1C21CDE90E552046AC
:100DC000FFF7B7F968461C21FFF7B3F93248E14B4A
:100DD000472244F61F61C0E90032C0E90251C0E970
:100DE00004558561FFF7EAFD08B1FFF7C1F94FF43B
:100DF000805016A916902848FFF70EFE08B1FFF79D
:100E0000B7F92548FFF707FF08B1FFF7B1F900254B
:100E1000062011A9129511901F48FFF717FF08B17E
:100E2000FFF7A6F91C480EA9CDE90E55FFF7A4FD62
:100E300008B1FFF79DF940F2DC50142108906020C2
:100E4000079004F10800FFF774F9134821460022C7
:100E5000FFF792FE08B1FFF78BF90F4807A90422AC
:100E6000FFF78AFE08B1FFF783F96C46142120468C
:100E7000FFF75FF90020214606904FF400500590DF
:100E80000548FFF751FD08B1FFF772F90248FFF777
:100E900051FE1AB0B0BD00BF1000002010B50B48C5
:100EA0000B4C4FF4E13300210C22C0E90043C0E9B0
:100EB0000211C0E90412C0E90611FFF7E6FE00289E
:100EC00014BFBDE8104010BDFFF752B9500000201C
:100ED00000440040FEE7704710B5064A00F00F03DB
:100EE0000028054C02444FEA0110B8BF1A191070CF
:100EF00010BD00BF00E400E014ED00E07047704753
:100F0000FFF70ABAB0B590B000244FF4E010022504
:100F10000121CDE90B44CDE909440F904FF4803015
:100F20000E900D950A910894CDE9061006A8FFF7DA
:100F300069FB4FF480600594022104900F20CDE9F5
:100F40000254019001A8FFF76DFA10B0B0BD000087
:100F50000E480F4A016841F00101016041681140EB
:100F60000C4A4160016811400160016821F4802150
:100F70000160416821F4FE0141604FF41F0181606E
:100F800005484FF000610160704700BF001002404B
:100F90000000FFF8FFFFF6FE08ED00E0B0B50368C3
:100FA0006C4DB0F1804F07D0104CA04204D0A84245
:100FB00002D00F4CA04207D14C6823F45C73CA687E
:100FC00024F44074234313434A6923F08003A84266
:100FD00042EA030202608A68C2620A68826204BF4F
:100FE0000969296301214161B0BD00BF00040040CF
:100FF0000008004070B5026A22F001020262026A33
:10100000D0F804E0D0F818C08C680B6822F0020217
:1010100022432CF0730444EA030C4E4B98420CD14B
:10102000CE68D1E905452EF4407322F00C0223432B
:1010300043EA050E26F004031A43C0F804E0C0F8A2
:1010400018C049684163026270BD00BF70B5026A92
:1010500022F010020262026AD0F804E0D0F818C050
:101060008C680B6822F0200242EA04122CF4E64459
:1010700044EA032C374B98420FD1CE68D1E905459D
:101080002EF4406322F0C00243EA840343EA850E53
:101090006FF0400303EA06131A43C0F804E0C0F8F7
:1010A00018C049688163026270BD00BF70B5026AF2
:1010B00022F480720262026AD0F804E0D0F81CC008
:1010C0008C680B6822F4007242EA04222CF073044C
:1010D00044EA030C1F4B98420FD1CE68D1E9054575
:1010E0002EF4405322F4406243EA041340F2FF44DA
:1010F00043EA051E3302A3431A43C0F804E0C0F8D4
:101100001CC04968C163026270BD00BFB0B5026A0D
:1011100022F480520262026AD0F804E0C5698B684A
:101120000C6822F4005242EA033C0A4B25F4E642E2
:1011300042EA0422984204D14B692EF4804545EAE4
:10114000831EC0F804E0C26149680164C0F820C091
:10115000B0BD00BF002C014080B50068826822F05D
:10116000770CD1E900E222F0070343EA0C0343EADB
:101170000E0383606FF0030303EB3212032A88BF70
:1011800080BDDFE802F002231017026A036A23F031
:10119000010303628369096923F0F00343EA011143
:1011A0008161026280BD8B680A691946BDE8804092
:1011B00000F024B8D1E9022309691A4342EA012167
:1011C000826822F47F421143816080BD8B680A6986
:1011D0001946BDE88040AFF30080D0F820C0036A14
:1011E00023F001030362836923F0F00343EA021250
:1011F00082612CF00A02114301627047036A23F0F6
:1012000010030362836923F4704343EA0232036AE2
:10121000826123F0A00242EA0111016270470000DE
:101220002DE9F0470446006841F20C660169E26866
:1012300021F4405111430161A168D4E90423C76836
:101240001143B74319433943C1604169A26921F48D
:101250004071114341612849884214BFDFF89CA0C6
:10126000DFF89CA0D047D4F804908046D047676848
:101270000646D04761681925BF00684306FB05F3A1
:101280008900B3FBF7F3B0FBF1F06421B0FBF1F29E
:1012900002FB1102181A4FEA89031044322202EBB2
:1012A000001008FB05F2B0FBF1F0B2FBF3F200F026
:1012B000F000B2FBF1F100EB0116D0476168684322
:1012C0008900B0FBF1F7D047616868436422890068
:1012D000B0FBF1F0B0FBF2F3391A03FB1200084443
:1012E000322101EB00102168B0FBF2F000F00F009A
:1012F00030438860BDE8F087003801407D05000874
:1013000091050008FEE7FFF711F8FFF7FBFDFFF777
:1013100025FDFFF745FDFFF7C1FDFEE702E008C828
:10132000121F08C1002AFAD170477047002001E05F
:1013300001C1121F002AFBD170470000000000000D
:101340000000010203040607080900000000010272
:1013500003040000781300080000002010000000C3
:101360001C130008881300081000002088040000E7
:101370002C13000800000000010000001000000015
:0813800000A24A040000000075
:04000005080000ED02
:00000001FF
